:020000040800F2
:10000000884C0020610200084D3A0008FF250008D6
:10001000493A000849050008B14400080000000002
:10002000000000000000000000000000A101000826
:10003000DB07000800000000FD0100080141000886
:100040007B0200087B0200087B0200087B0200089C
:100050007B0200087B0200087B0200087B0200088C
:100060007B0200087B0200087B0200087B0200087C
:100070007B020008CD0700087B0200087B02000815
:10008000CF070008D10700087B0200087B020008A8
:100090004D0500085D0500087B0200087B02000892
:1000A0007B020008714300087B0200087B02000805
:1000B0007B020008734300087B0200087B020008F3
:1000C0007B0200087B0200087B0200087B0200081C
:1000D0007B0200086D440008754400087B0200089C
:1000E0007B0200087B0200087B0200087B020008FC
:1000F0007B0200087B0200087B0200087B020008EC
:100100007B0200087B0200087B0200087B020008DB
:10011000654400087B020008754300088543000819
:100120007B020008D3070008D50700087B020008FF
:100130007B0200087B0200087B0200087B020008AB
:100140006D0500087D0500087B0200087B020008A1
:100150007B020008D7070008D90700087D44000883
:100160007B0200087B0200087B0200087B0200087B
:100170007B0200087B0200087B02000800000000F0
:100180007B0200087B020008DFF810D000F0EEF8D8
:10019000004800479D4C0008AFF30080884C0020C9
:1001A0002C4B19680868B0E8F04F80F30988BFF35A
:1001B0006F8F4FF0000080F311887047000000003F
:1001C00008480068006880F308884FF0000080F35A
:1001D000148862B661B6BFF34F8FBFF36F8F00DF35
:1001E00000BF00BF08ED00E0DFF80C00016841F43B
:1001F00070010160704700BF88ED00E0EFF30980F7
:10020000BFF36F8F134B1A681EF0100F08BF20ED5D
:10021000108A20E9F04F106009B44FF0500080F3CD
:100220001188BFF34F8FBFF36F8F05F08BFF4FF037
:10023000000080F3118809BC19680868B0E8F04F25
:100240001EF0100F08BFB0EC108A80F30988BFF3CE
:100250006F8F704788000020EFF305807047000023
:100260000648804706480047FEE7FEE7FEE7FEE750
:10027000FEE7FEE7FEE7FEE7FEE7FEE7E9410008EE
:10028000890100082DE9F05F0546002092469B4653
:1002900088460646814640241BE02846414647469C
:1002A000224600F053F853465A46C01A914110D3E3
:1002B00011461846224600F03AF82D1A67EB01085D
:1002C0004F4622460120002100F031F817EB0009CB
:1002D0004E41201EA4F10104DFDC484631462A4687
:1002E0004346BDE8F09F40EA01039B0703D009E0C5
:1002F00008C9121F08C0042AFAD203E011F8013B12
:1003000000F8013B521EF9D27047D2B201E000F86A
:10031000012B491EFBD270470022F6E710B51346A9
:100320000A4604461946FFF7F0FF204610BD202A72
:1003300004DB203A00FA02F1002070479140C2F13C
:10034000200320FA03F3194390407047202A04DB6E
:10035000203A21FA02F00021704721FA02F3D0403E
:10036000C2F120029140084319467047064C074DE0
:1003700006E0E06840F0010394E807009847103475
:10038000AC42F6D3FFF704FF446900086469000833
:1003900070B58C1810F8015B15F0070301D110F847
:1003A000013B2A1106D110F8012B03E010F8016B74
:1003B00001F8016B5B1EF9D12B0705D40023521EF7
:1003C0000DD401F8013BFAE710F8013BCB1A921C5F
:1003D00003E013F8015B01F8015B521EF9D5A1425D
:1003E000D8D3002070BD000055494A6822F440323D
:1003F0004A604A6843681A434A600268526822F4B5
:10040000807203685A6002685368026943EA0222F4
:1004100003685A600268526822F0407203685A60AA
:100420000268526883681A4303685A6002689268D7
:1004300022F4006203689A6002689268C3681A43F3
:1004400003689A603F4B826A9A4218D002689268A9
:1004500022F0706203689A6002689268836A1A43A5
:1004600003689A600268926822F0405203689A60BA
:1004700002689268C36A1A4303689A600BE00268D4
:10048000926822F0706203689A600268926822F0B3
:10049000405203689A600268926822F00202036880
:1004A0009A6002689368027E43EA420203689A6097
:1004B0002022125CA2B10268526842F40062036812
:1004C0005A600268526822F4604203685A60026807
:1004D0005368426A521E43EA423203685A6005E09A
:1004E0000268526822F4006203685A600268D26AA5
:1004F00022F470020368DA620268D36A828B521EA9
:1005000043EA02520368DA620268926822F40072D7
:1005100003689A600268936890F8302043EA4222A8
:1005200003689A600268926822F4806203689A60A5
:1005300002689368426943EA822203689A607047BE
:10054000002301400100000F00BFFEE710B5024884
:1005500000F0D4FD10BD00008C01002010B5024851
:1005600000F0CCFD10BD00008C01002010B5024849
:1005700000F0C4FD10BD0000B401002010B5024819
:1005800000F0BCFD10BD0000B4010020F0B58BB040
:1005900007460C4615461E4604F0020080B1E804EA
:1005A0000190E80004F0030140EA41000290F004E9
:1005B0000390F00004F0030140EA4100049009E0D8
:1005C00068010190A007400F029070010390A007FE
:1005D000400F0490E0100690C4F3800005900120C5
:1005E000099000200790012008900E200A9001A990
:1005F000384600F033FC0BB0F0BD0000F8B50646FD
:100600000C4617461D46094804600020074948600B
:100610008860C860084605616B463A46304600F07F
:1006200071FB08B10020F8BD0120FCE71405002093
:1006300030B58DB004460D46687878BB184904A8DB
:10064000A04704A807C801AB07C3BDF90600B0F571
:10065000C87F0BDB12490AA8A0470AA807C807AB46
:1006600007C3BDF81C0008B9012068700C4904A834
:10067000A04704A807C801AB07C3BDF9060010F5E1
:10068000C87F0BDC06490AA8A0470AA807C807AB21
:1006900007C3BDF81C0008B9062068700DB030BD56
:1006A0008804002070B504460D46607808280AD2F8
:1006B000DFE800F088040A32383F4E54012211026C
:1006C000414801F07BF97DE02078012809D1012221
:1006D00041033D4801F072F90122D1023A4801F08C
:1006E0006DF92078022809D101224103364801F032
:1006F00065F901229102344801F060F9207803285D
:1007000009D10122D103304801F058F90122110327
:100710002D4801F053F955E0012251022A4801F019
:100720004DF94FE000224FF40071274801F046F9DF
:1007300048E000224FF48071234801F03FF9002087
:1007400060702078032802D02078401C207039E0A7
:10075000012211021C4801F031F933E02078012810
:100760000AD100224103184801F028F900224FF471
:100770000061154801F022F9207802280AD10022F0
:100780004102114801F01AF900224FF480410E484D
:1007900001F014F9207803280BD100224FF4004116
:1007A000094801F00BF900224FF48051064801F08E
:1007B00005F92078002802DD2078401E20700020F6
:1007C000607000BF00BF70BD0010024070477047EE
:1007D000704770477047704770477047A0F201221A
:1007E00032B1012A55D0022A7ED0032A7DD1F5E00C
:1007F000A44AB2F8B433B2F9B6239A1AB2F5805FBC
:1008000006DDA04AD2F8C4335B1EC2F8C4330EE042
:100810009C4AB2F8B433B2F9B6239A1A12F5805F43
:1008200005DA984AD2F8C4335B1CC2F8C433954A3F
:10083000B2F8B42313B2934AA2F8B6334A780B78CD
:1008400042EA03238F4AA2F8B433CA788B7842EA8B
:10085000032213B28B4AA2F8BC334A790B7942EADD
:10086000032213B2874AA2F8BE338B7982F8C033D1
:10087000D2F8C423C2EB4233824AB2F8B4231A44FA
:1008800013B2804AA2F8B833B2F8B833A2F8BA3338
:10089000F6E07C4AB2F87434B2F976249A1AB2F5CA
:1008A000805F06DD774AD2F884345B1EC2F8843458
:1008B0000EE0744AB2F87434B2F976249A1A12F53A
:1008C000805F05DA6F4AD2F884345B1CC2F8843446
:1008D0006C4AB2F8742413B26A4AA2F876344A78A1
:1008E0000B7842EA032301E027E0C8E0654AA2F85A
:1008F0007434CA788B7842EA032213B2614AA2F8B0
:100900007C344A790B7942EA032213B25D4AA2F899
:100910007E348B7982F88034D2F88424C2EB42335F
:10092000584AB2F874241A4413B2564AA2F87834DA
:10093000B2F87834A2F87A34A2E0524AB2F83435E8
:10094000B2F936259A1AB2F5805F06DD4D4AD2F823
:1009500044355B1EC2F844350EE04A4AB2F83435DD
:10096000B2F936259A1A12F5805F05DA454AD2F8AF
:1009700044355B1CC2F84435424AB2F8342513B200
:10098000404AA2F836354A780B7842EA03233D4ABA
:10099000A2F83435CA788B7842EA032213B2394A76
:1009A000A2F83C354A790B7942EA032213B2354A60
:1009B000A2F83E358B7982F84035D2F84425C2EB57
:1009C0004233304AB2F834251A4413B22D4AA2F801
:1009D0003835B2F83835A2F83A3551E0294AB2F83C
:1009E000F435B2F9F6259A1AB2F5805F06DD254A8C
:1009F000D2F804365B1EC2F804360EE0214AB2F883
:100A0000F435B2F9F6259A1A12F5805F05DA1D4A17
:100A1000D2F804365B1CC2F804361A4AB2F8F42540
:100A200013B2184AA2F8F6354A780B7842EA032343
:100A3000144AA2F8F435CA788B7842EA032213B23A
:100A4000104AA2F8FC354A790B7942EA032213B224
:100A50000C4AA2F8FE358B7982F80036D2F80426CB
:100A6000C2EB4233074AB2F8F4251A4413B2054ADE
:100A7000A2F8F835B2F8F835A2F8FA3500E000BF70
:100A800000BF70477C42002072B600BFFEE7000046
:100A900038B502460020009000BF92F83C000128C3
:100AA00001D1022038BD012082F83C0000BF086857
:100AB000092816D91068C0680C780A3C04EB440574
:100AC0000724AC40A0431468E0600C780A3C04EBB7
:100AD00044048868A0401468E46820431468E06017
:100AE00013E0106800690C7804EB44050724AC405F
:100AF000A043146820610C7804EB44048868A0408B
:100B0000146824692043146820614868072817D2B4
:100B10001068406B0C79641E04EB84051F24AC4004
:100B2000A04314686063088880B20C79641E04EBEB
:100B30008404A0401468646B20431468606331E04F
:100B400048680D2817D21068006B0C79E41F04EB7D
:100B500084051F24AC40A04314682063088880B239
:100B60000C79E41F04EB8404A0401468246B204338
:100B70001468206316E01068C06A0C790D3C04EB21
:100B800084051F24AC40A0431468E062088880B24A
:100B90000C790D3C04EB8404A0401468E46A204303
:100BA0001468E062194B1A4C1068A04206D108681C
:100BB000122803D1586840F480005860144C106823
:100BC000A0421CD10868102802D00868112816D14C
:100BD000586840F400005860086810280FD10D488C
:100BE00000680D4CB0FBF4F000EB8000400000907A
:100BF00002E00098401E009000980028F9D100BF44
:100C0000002082F83C0000BF00BF4BE700230140FA
:100C1000002001401C00002040420F0070B5044637
:100C200000250CB9012070BD1549A06A884200D08A
:100C300000BF206C30B9204600F024F8002060642A
:100C400084F83C00206C00F0100088B9206C20F47F
:100C5000885040F0020020642046FFF7C5FB0020CA
:100C60006064206C20F0020040F00100206400E08D
:100C7000012500BF002084F83C0000BF2846D2E7D1
:100C80000100000F10B586B00446142101A8FFF73B
:100C900043FB1949206888422BD100BF00200090F7
:100CA0001648006840F480701449086008460068DF
:100CB00000F48070009000BF00BF00BF00200090D3
:100CC0000E481438006840F004000C4914390860DC
:100CD0000846006800F00400009000BF00BF082034
:100CE0000190032002900020039001A9044800F025
:100CF0006BFD06B010BD00000020014044380240EA
:100D000000080240F0B504460D461E4694F82070D7
:100D100020688368A86800B900E000BF012F01D0F7
:100D2000022F7CD103F0806030B903F0006018B965
:100D300003F08050002873D0C3F30161022905D964
:100D4000606A40F4000060620120F0BD012088402C
:100D50003060A86860B9B5F800C0E86840EA4C5C4B
:100D6000206800F5C07000EB0110C0F800C00FE073
:100D7000D5E901C040EACC00D5F80CC040EA0C002F
:100D8000D4F800C00CF5C07C0CEB011CCCF80000C2
:100D9000D5F810C0206800F5C07000EB0110C0F855
:100DA00004C0287D01280ED1206800F5C07000EB3A
:100DB0000110406840F4807C206800F5C07000EBB2
:100DC0000110C0F804C0D079000692F806C040EACD
:100DD0000C4092F805C040EA0C2C10794CEA000C4B
:100DE000206800F5C07000EB0110C0F80CC0D0788E
:100DF000000692F802C040EA0C4092F801C040EAB6
:100E00000C2092F800C040EA0C00D4F800C00CF5A9
:100E1000C07C0CEB011CCCF80800206801E016E057
:100E20000FE000F5C07000EB0110006840F0010C0D
:100E3000206800F5C07000EB0110C0F800C0002071
:100E400083E7606A40F40010606201207DE7606A19
:100E500040F480206062012077E70000F0B504468E
:100E60000A46216894F82050012D01D0022D7ED130
:100E7000424901F50071086840F001000860086807
:100E800020F47C5008600868566A40EA0620086032
:100E9000107D00F01F06012000FA06F3C869984390
:100EA000C861A1F50071D069C8B9D1F80C029843A6
:100EB000C1F80C02908880B2968940EA064601F596
:100EC0001070576940F83760108880B2168940EA80
:100ED000064601F51070576900EBC7004660D069FF
:100EE000012819D1D1F80C021843C1F80C029088DE
:100EF00080B2168840EA064601F51070576940F83E
:100F00003760908980B2168940EA064601F5107074
:100F1000576900EBC7004660906928B9D1F8040210
:100F20009843C1F8040204E0D1F804021843C1F860
:100F30000402106928B9D1F814029843C1F81402C8
:100F400004E0D1F814021843C1F81402106A012811
:100F500004D1D1F81C021843C1F81C02D1F80002D8
:100F600020F00100C1F800020020F0BDFFE7606A38
:100F700040F4802060620120F7E700000064004038
:100F8000704770B5044694F82050012D01D0022D11
:100F90007DD151B92068C06800F0030080B9606A53
:100FA00040F400106062012070BD2068006900F00C
:100FB000030028B9606A40F4001060620120F3E782
:100FC000206800F5D87000EB0110006800F0040004
:100FD0009060906840B9206800F5D87000EB01106F
:100FE0000068400D106007E0206800F5D87000EB45
:100FF00001100068C0085060206800F5D87000EB50
:101000000110006800F00200D060206800F5D87080
:1010100000EB0110406800F00F001061206800F53F
:10102000D87000EB0110406800F47F40000A906126
:10103000206800F5D87000EB01104068000C50618A
:10104000206800F5D87000EB0110806818702068E7
:1010500000F5D87000EB0110806800F47F40000AB2
:101060005870206800F5D87000EB0110806800F41B
:101070007F00000C9870206800F5D87000EB01101C
:101080008068000ED870206800F5D87000E02FE06E
:1010900000EB0110C0681871206800F5D87000EBF3
:1010A0000110C06800F47F40000A5871206800F504
:1010B000D87000EB0110C06800F47F00000C98713C
:1010C000206800F5D87000EB0110C068000ED871E0
:1010D00031B92068C06840F020002668F06005E063
:1010E0002068006940F020002668306100205BE73E
:1010F000606A40F480206062012055E72DE9F05FCE
:1011000004460025206846692068D0F804902068CD
:1011100087682068D0F80CA02068D0F810B020684C
:10112000D0F8188006F00100002855D007F0010023
:10113000C0B101202168886007F0020018B1204684
:1011400000F011FB0EE007F0040010B145F400655B
:1011500008E007F0080010B145F4805502E0204691
:1011600000F000FB07F48070C8B14FF48070216874
:10117000886007F4007018B1204600F0F6FA0EE01F
:1011800007F4806010B145F4005508E007F40060F2
:1011900010B145F4804502E0204600F0E5FA07F47E
:1011A0008030C8B14FF480302168886007F4003087
:1011B00018B1204600F0DBFA0EE007F4802010B1F1
:1011C00045F4004508E007F4002010B145F48035EF
:1011D00002E0204600F0CAFA06F0080038B10AF032
:1011E000100020B145F4007510202168C86006F099
:1011F000040040B10AF0080028B108202168C86046
:10120000204600F01FFA06F0020038B12068C068DE
:1012100000F0030010B1204600F016FA06F040007E
:1012200038B10BF0100020B145F480651020216822
:10123000086106F0200040B10BF0080028B108203A
:1012400021680861204600F02DFA06F0100038B140
:101250002068006900F0030010B1204600F024FA75
:1012600006F4003040B109F0100028B110202168C8
:101270004860204600F046FA06F4803040B109F09C
:10128000080028B1082021684860204600F070FA64
:1012900006F4004088B309F0040078B306F48070C7
:1012A00020B108F0010008B145F0010506F4007016
:1012B00020B108F0020008B145F0020506F4806094
:1012C00020B108F0040008B145F0040506F4006000
:1012D000A0B108F0700088B108F07000402817D065
:1012E00006DC10280BD020280CD0302819D10CE0B7
:1012F000502810D0602814D110E01DE019E045F00E
:1013000008050FE045F010050CE045F0200509E068
:1013100045F0400506E045F0800503E045F48075A2
:1013200000E000BF00BF2068806920F070002168E5
:1013300088610420216848602DB1606A284360629A
:101340002046FFF71DFEBDE8F09F70B504460CB9BE
:10135000012070BD94F8200010B9204600F0B0F8CC
:101360002068006840F001002168086000F02CFB54
:1013700005460DE000F028FB401B0A2808D9606AEA
:1013800040F400306062052084F820000120E0E78E
:101390002068406800F001000028EBD02068006859
:1013A00020F002002168086000F00EFB05460DE009
:1013B00000F00AFB401B0A2808D9606A40F400309C
:1013C0006062052084F820000120C2E720684068A0
:1013D00000F002000028EBD1207E012806D1206811
:1013E000006840F080002168086005E0206800681F
:1013F00020F0800021680860607E012806D1206806
:10140000006840F040002168086005E0206800683E
:1014100020F0400021680860A07E012806D12068E5
:10142000006840F020002168086005E0206800683E
:1014300020F0200021680860E07E012806D12068A5
:10144000006820F010002168086005E0206800684E
:1014500040F0100021680860207F012806D1206834
:10146000006840F008002168086005E02068006816
:1014700020F0080021680860607F012806D12068FC
:10148000006840F004002168086005E020680068FA
:1014900020F0040021680860D4E9020108432169B2
:1014A0000843616908436168491E08432168C861AF
:1014B00000206062012084F82000002049E700003D
:1014C00010B586B00446142101A8FEF725FF574940
:1014D000206888424AD156480068401C5449086038
:1014E0000846006801280FD100BF00200090514835
:1014F000006840F000704F4908600846006800F03E
:101500000070009000BF00BF00BF0020009049485D
:101510001038006840F0010046491039086008465C
:10152000006800F00100009000BF00BF4FF4C05001
:1015300001900220029000200390032004900920D3
:10154000059001A93C4800F03FF900220521142034
:1015500000F0FEFA142000F0EBFA0022052115201D
:1015600000F0F6FA152000F0E3FA5CE03349206859
:10157000884258D100BF002000902E48006840F0FB
:1015800080602C4908600846006800F08060009088
:1015900000BF00BF26480068401C25490860084677
:1015A000006801280FD100BF00200090214800688A
:1015B00040F000701F4908600846006800F00070A5
:1015C000009000BF00BF00BF0020009019481038F5
:1015D000006840F0020017491039086008460068AA
:1015E00000F00200009000BF00BF602001900220C8
:1015F000029000200390032004900920059001A987
:101600000F4800F0E1F800220521402000F0A0FA88
:10161000402000F08DFA00220521412000F098FAC8
:10162000412000F085FA06B010BD000000640040C3
:101630000C000020403802400000024000680040DA
:10164000000402407047000010B5044610492068AD
:1016500088420CD10F4BA3F11C0200212046FFF75A
:1016600090FC0C481C380C49096888470FE00B496E
:10167000206888420BD1074BA3F11C0200212046B1
:10168000FFF77FFC03481C3805490968884710BDEF
:1016900000640040600500207800002000680040E1
:1016A0007C0000207047000010B5044610492068F7
:1016B00088420CD10F4BA3F11C0201212046FFF7F9
:1016C00060FC0C481C380C49096888470FE00B493E
:1016D000206888420BD1074BA3F11C020121204650
:1016E000FFF74FFC03481C3805490968884710BDBF
:1016F000006400408405002078000020006800405D
:101700007C000020704770B5044694F82000012842
:1017100022D1022084F820002068006820F0010017
:101720002168086000F050F905460DE000F04CF922
:10173000401B0A2808D9606A40F400306062052026
:1017400084F82000012070BD2068406800F001008E
:101750000028EBD16062F6E7606A40F40020606226
:101760000120F0E770477047704770477047704737
:10177000704710B504460CB9012010BD607920B93E
:1017800000202071204600F005F801206071002043
:10179000F3E7000008B50A4A016891420FD100BF83
:1017A000002100910749096841F48051054A116000
:1017B0001146096801F48051009100BF00BF08BDC7
:1017C0000030024030380240F8B502460B46002592
:1017D000002400200021D6E0012606FA01F51E684B
:1017E00006EA0504AC4274D11E7906F00306012E08
:1017F00004D01E7906F00306022E13D190684F0024
:101800000326BE40B0434F00DE68BE4030439060C8
:10181000506801268E40B0431E79C6F300168E40F4
:10182000304350601E7906F00306032E09D0D068BD
:101830004F000326BE40B0434F009E68BE40304379
:10184000D0601E7906F00306022E13D1CF0802F1F4
:10185000200656F827004E07F70E0F26BE40B0436D
:101860004F07FF0E1E69BE403043CF0802F120062D
:1018700046F8270010684F000326BE40B0431E798B
:1018800006F003064F00BE40304310605E6806F469
:101890004036002E76D000BF002600963C4E3668BB
:1018A00046F480463A4F3E603E46366806F480462F
:1018B000009600BF00BF374E8F0856F827008E07EE
:1018C000370F0F26BE40B043334EB24202D100263E
:1018D00024E057E0314EB24201D101261EE0304EE5
:1018E000B24201D1022619E02E4EB24201D10326A6
:1018F00014E02D4EB24201D104260FE02B4EB2422D
:1019000001D105260AE02A4EB24201D1062605E0A1
:10191000284EB24201D1072600E008268F073F0F6C
:10192000BE4030431B4E8F0846F82700224E3068D9
:10193000A0435E6806F4801606B120431E4E306058
:10194000361D3068A0435E6806F4001606B12043D9
:10195000194E361D3060184E361F3068A0435E6841
:1019600006F4003606B12043134E361F3060361F92
:101970003068A0435E6806F4803606B120430E4E00
:10198000083E3060491C1029FFF426AFF8BD000066
:101990004438024008380140000002400004024080
:1019A00000080240000C02400010024000140240F7
:1019B00000180240001C0240083C01400AB181614D
:1019C00001E00B0483617047014800687047000024
:1019D00010000020034800680349097808440149C1
:1019E00008607047100000201800002010B50D4856
:1019F000006840F400700B4908600846006840F435
:101A0000806008600846006840F480700860032029
:101A100000F0DCF80F2000F007F800F05FF800207D
:101A200010BD0000003C02402DE9F04188B00446A2
:101A30000027B84600BF002001902348006840F00E
:101A40001000214908600846006800F0100001906D
:101A500000BF00BF02A903A800F08EF9069F1FB9BE
:101A600000F0B2F9054602E000F0AEF94500174873
:101A7000B5FBF0F0A0F1010815481649086040F2E6
:101A8000E7311448C160C0F8048000210161816021
:101A9000816100F051FC064696B90E4800F080FCCA
:101AA00006466EB9362000F043F8102C07D200220B
:101AB0002146362000F04CF80748046000E001267B
:101AC000304608B0BDE8F0814038024040420F0087
:101AD00000100040380300201400002008B500BFAB
:101AE000002000901148006840F480400F490860D1
:101AF0000846006800F48040009000BF00BF00BFAF
:101B000000200090081F006840F08050091F086006
:101B10000846006800F08050009000BF00BF00221F
:101B20000F21901E00F014F808BD00004438024058
:101B300001460846002809DB00F01F0301229A40F5
:101B400043099B0003F1E023C3F8002100BF704765
:101B50002DE9F05F80460D461646002702F0C8FCCE
:101B6000074639462A46334601F00700C0F1070A06
:101B7000BAF1040F02D94FF0040A01E0C0F1070ADC
:101B8000D14600F1040ABAF1070F02D24FF0000A61
:101B900001E0A0F1030AD4464FF0010A0AFA09FA5B
:101BA000AAF1010A0AEA020A0AFA0CFA4FF0010B3A
:101BB0000BFA0CFBABF1010B0BEA030B4AEA0B042B
:101BC0002146404602F0B0FCBDE8F09F00BF00F0A7
:101BD0000702064B19684FF6FF031940044B0B43ED
:101BE00043EA0221014B196000BF70470CED00E091
:101BF0000000FA0570B504460D460CB9012070BD11
:101C00005848006800F00700A84209D255490D70F5
:101C10000846006800F00700A84201D00120EEE766
:101C2000207800F0020002281DD1207800F0040086
:101C3000042805D14C48006840F4E0504A49086047
:101C4000207800F00800082805D14748006840F4D3
:101C50006040454908604448006820F0F000A168F1
:101C6000084341490860207800F00100A8B360688B
:101C7000012807D13C4808380068C0F34040B8B993
:101C80000120BCE76068022802D06068032807D101
:101C9000354808380068C0F3406048B90120AEE715
:101CA000314808380068C0F3400008B90120A6E7B1
:101CB0002D48006820F00300616808432A49086045
:101CC000FFF782FE064609E0FFF77EFE801B41F229
:101CD0008831884202D9032091E707E02248006852
:101CE00000F00C006168B0EB810FEDD11D48006879
:101CF00000F00700A84209D91A490D70084600688B
:101D000000F00700A84201D0012078E7207800F019
:101D10000400042807D11448006820F4E050E1686A
:101D2000084311490860207800F00800082808D10D
:101D30000D48006820F46040216940EAC1000A496A
:101D4000086000F051F808490968C1F30311074A17
:101D5000515CC8400649086006480068FFF764FE09
:101D600000204CE7003C024008380240F4680008BC
:101D70001C000020140000200F2202600D4A12688F
:101D800002F0030242600B4A126802F0F002826025
:101D9000084A126802F4E052C260064A126802F46D
:101DA0006042D2080261044A126802F007020A6027
:101DB0007047000008380240003C024001480068BB
:101DC000704700001C00002000B5FFF7F7FF044932
:101DD0000968C1F38221034A515CC84000BD00007C
:101DE00008380240046900082DE9F0470024002566
:101DF0000026A1462548006800F00C0020B1042808
:101E000005D008283AD105E0DFF8849039E0DFF802
:101E1000849036E01D48001F006800F03F041B4816
:101E2000001F006800F4800078B11A481749091FA4
:101E30000968C1F38811A0FB017001462246002306
:101E40003846FEF71FFA05460EE011480F49091FF4
:101E50000968C1F38811A0FB0170014622460023E6
:101E60003846FEF70FFA05460848001F0068C0F321
:101E70000140401C4600B5FBF6F902E0DFF8109087
:101E800000BF00BF4846BDE8F087000008380240A8
:101E90000024F40000127A00F8B504460CB90120C1
:101EA000F8BD207800F00100002874D0F9480068DF
:101EB00000F00C0004280DD0F648006800F00C007B
:101EC000082813D1F348001F006800F48000B0F523
:101ED000800F0BD1EF4808380068C0F3404000285D
:101EE00059D06068002856D10120D9E700BF60684A
:101EF000B0F5803F08D1E7480838006840F48030EA
:101F0000E449083908601EE06068B0F5A02F0DD1E3
:101F1000E0480838006840F48020DE49083908604D
:101F20000846006840F4803008600CE0D948083862
:101F3000006820F48030D7490839086008460068F6
:101F400020F48020086000BF606890B1FFF73CFD7E
:101F5000054606E0FFF738FD401B642801D9032041
:101F60009EE7CC4808380068C0F340400028F1D014
:101F700011E0FFF729FD054606E0FFF725FD401BB0
:101F8000642801D903208BE7C24808380068C0F3F1
:101F900040400028F1D1207800F0020002285FD1F3
:101FA000BC48006800F00C0058B1BA48006800F066
:101FB0000C0008281CD1B748001F006800F48000FE
:101FC000B0B9B44808380068C0F3400020B1E068F8
:101FD000012801D0012063E7AE480838006820F0EE
:101FE000F800216940EAC100AA490839086037E0D1
:101FF000E06800B30120A8490860FFF7E5FC05464A
:1020000006E0FFF7E1FC401B022801D9032047E767
:10201000A04808380068C0F340000028F1D09D486F
:102020000838006820F0F800216940EAC1009949A9
:102030000839086014E0002097490860FFF7C4FCE5
:10204000054606E0FFF7C0FC401B022801D903202B
:1020500026E7904808380068C0F340000028F1D116
:10206000207800F0080008282CD16069A8B1012070
:102070008A490860FFF7A8FC054606E0FFF7A4FCC4
:10208000401B022801D903200AE782486C3000680F
:10209000C0F340000028F1D014E000207F49086020
:1020A000FFF792FC054606E0FFF78EFC401B022876
:1020B00001D90320F4E677486C300068C0F3400093
:1020C0000028F1D1207800F00400042870D1002706
:1020D00070483830006800F0805090B900BF002090
:1020E00000906C483830006840F0805069493831C1
:1020F00008600846006800F08050009000BF00BFF4
:1021000001276748006800F48070B0B9644800682F
:1021100040F4807062490860FFF756FC054606E00F
:10212000FFF752FC401B022801D90320B8E65C48A7
:10213000006800F480700028F2D000BFA068012879
:1021400008D154486830006840F0010051496831B6
:1021500008601DE0A06805280DD14E486830006871
:1021600040F004004B49683108600846006840F0C0
:10217000010008600CE047486830006820F001006A
:102180004449683108600846006820F0040008608F
:1021900000BFA068A8B1FFF717FC054609E0FFF7EC
:1021A00013FC401B41F28831884202D9032077E6B4
:1021B00026E0384868300068C0F340000028EED0C0
:1021C00013E0FFF701FC054608E0FFF7FDFB401BAD
:1021D00041F28831884201D9032061E62D486830F8
:1021E0000068C0F340000028EFD1012F07D1294833
:1021F0003830006820F0805026493831086000BF30
:10220000A069002845D02348006800F00C00082889
:102210005DD0A069022845D100201F490866FFF75C
:10222000D3FB054606E0FFF7CFFB401B022801D990
:10223000032035E6174808380068C0F340600028DE
:10224000F1D1D4E907010843616A40EA8111012212
:10225000A06AC2EB500041EA00412C20005D41EA37
:1022600000600C49091F086001200B490866FFF750
:10227000ABFB054606E0FFF7A7FB401B022801D990
:1022800003200DE6034808380068C0F340600028CA
:10229000F1D049E00838024000004742800E474232
:1022A00000700040002021490866FFF78DFB0546BD
:1022B00006E0FFF789FB401B022801D90320EFE568
:1022C0001B480068C0F340600028F2D12CE0A069F0
:1022D000012800D1E4E51648001D0668A069012820
:1022E00020D006F48001E06981421BD106F03F0155
:1022F000206A814216D147F6C0703040616AB0EB67
:10230000811F0FD106F440310122A06AC2EB5000B8
:10231000B1EB004F06D106F070612C20005DB1EBEF
:10232000006F01D00120BBE50020B9E50000474265
:10233000003802407047704710B504460CB90120C0
:1023400010BD94F83D0028B9002084F83C002046D8
:1023500000F025F8022084F83D00211D206802F0DD
:1023600015F8012084F8460000BF84F83E000121E2
:102370003F200155402001554120015500BF00BFBD
:10238000012084F842004320015544200155452096
:10239000015500BF012084F83D000020D0E77047C0
:1023A000014691F83D00012801D00120704702202C
:1023B00081F83D000868C06840F001000B68D860F3
:1023C0001A4B086898421BD00868B0F1804F17D0AC
:1023D000174B0868984213D0164B086898420FD0E4
:1023E000154B086898420BD0144B0868984207D0E8
:1023F000134B0868984203D0124B086898420CD1DE
:102400000868806800F00702062A0CD00868006897
:1024100040F001000B68186005E00868006840F0B3
:1024200001000B6818600020C0E7000000000140B8
:102430000004004000080040000C0040000401407F
:102440000040014000180040704710B50446206865
:102450000069C0F34000D8B12068C068C0F34000F4
:10246000B0B16FF002002168086101202077206878
:10247000806900F0030018B12046FFF7E5FF05E092
:10248000204600F0ADF8204600F0ABF800202077A1
:1024900020680069C0F38000D8B12068C068C0F32C
:1024A0008000B0B16FF0040021680861022020773D
:1024B0002068806900F4407018B12046FFF7C4FF1F
:1024C00005E0204600F08CF8204600F08AF8002055
:1024D000207720680069C0F3C000D8B12068C068C8
:1024E000C0F3C000B0B16FF008002168086104209B
:1024F00020772068C06900F0030018B12046FFF77C
:10250000A3FF05E0204600F06BF8204600F069F8D4
:102510000020207720680069C0F30010D8B120683F
:10252000C068C0F30010B0B16FF0100021680861FE
:10253000082020772068C06900F4407018B1204658
:10254000FFF782FF05E0204600F04AF8204600F041
:1025500048F8002020772068006900F0010058B199
:102560002068C06800F0010030B16FF00100216800
:102570000861204600F036F820680069C0F3C010FA
:1025800058B12068C068C0F3C01030B16FF080004F
:10259000216808612046FFF7CDFE20680069C0F37E
:1025A000801058B12068C068C0F3801030B16FF05F
:1025B000400021680861204600F020F8206800698A
:1025C000C0F3401058B12068C068C0F3401030B16B
:1025D0006FF02000216808612046FFF7ACFE10BDB7
:1025E0007047704710B5044603492068884201D1FE
:1025F000FFF7F0F910BD000000100040704700BF69
:10260000FEE7000008B5054909680143034A116067
:10261000114609680140009100BF08BD30380240F2
:1026200008B5054909680143034A11601146096864
:102630000140009100BF08BD4038024008B505497F
:1026400009680143034A116011460968014000917D
:1026500000BF08BD443802404FF4801181607047CC
:102660004FF4001181607047054A525C0244526980
:1026700022F00402024B5B5C03445A617047000085
:10268000AC680008044A525C825822F00102024BF6
:102690005B5CC250704700000C690008044A525C41
:1026A000825842F48022024B5B5CC25070470000AB
:1026B0000C690008044A525C825842F00102024B45
:1026C0005B5CC250704700000C690008024603487A
:1026D000405C105800F40020704700000C690008AE
:1026E00002460348405C1044406880B270470000D6
:1026F0000C69000802460348405C105800F00100D5
:10270000704700000C69000810B5054B5B5CC358AE
:1027100023F060631343024C645C035110BD00005E
:10272000AC68000810B5054B5B5CC35823F400236C
:102730001343024C645C035110BD00000C69000897
:1027400010B5064B5B5C03445B686FF30F031343E8
:10275000024C645C0444636010BD00000C69000816
:1027600010B5054B5B5CC35823F0C0031343024C08
:10277000645C035110BD0000AC68000810B5044B48
:102780005B5C03441B69024C645C0444226110BD21
:102790000C690008024B5B5C0344DA607047000080
:1027A0000C69000810B5054B5B5CC35823F48063CB
:1027B0001343024C645C035110BD0000AC68000878
:1027C00010B5054B5B5CC35823F4C0431343024C64
:1027D000645C035110BD0000AC68000810B5054BE7
:1027E0005B5CC35823F490731343024C645C035145
:1027F00010BD0000AC680008024B5B5C03449A60AB
:10280000704700000C69000810B5054B5B5CC358AD
:1028100023F400731343024C645C035110BD0000A9
:10282000AC68000810B5054B5B5CC35823F4C0537B
:102830001343024C645C035110BD0000AC680008F7
:1028400010B5054B5B5CC35823F440331343024C73
:10285000645C035110BD0000AC680008F0B502468E
:102860000B4600240021186890FAA0F0B0FA80F41A
:102870008AE00125A540186800EA050100297DD0FD
:102880005868012802D0586802281CD198689568B9
:1028900091FAA1F6B6FA86F677000326BE40B54354
:1028A00091FAA1F6B6FA86F6760000FA06F63543F6
:1028B000956000BFD86855688D4301FB00F635432D
:1028C000556000BF00BF1869D56891FAA1F6B6FA45
:1028D00086F677000326BE40B54391FAA1F6B6FA14
:1028E00086F6760000FA06F63543D56000BF5868D4
:1028F000022831D191FAA1F0B0FA80F0082814D260
:102900005869156A91FAA1F6B6FA86F6B7000F264D
:10291000BE40B54391FAA1F6B6FA86F6B60000FAC3
:1029200006F63543156200BF16E05869556A0E0A6F
:1029300096FAA6F6B6FA86F6B7000F26BE40B5435D
:102940000E0A96FAA6F6B6FA86F6B60000FA06F66B
:102950003543556200BF00BF5868156891FAA1F66B
:10296000B6FA86F677000326BE40B54391FAA1F683
:10297000B6FA86F6760000FA06F600E003E0354384
:10298000156000BF00BF641C1868E04000287FF499
:1029900070AFF0BD10B5044601F024FB2060206844
:1029A00001F0ECFA6060606801F0F8FAA06060681D
:1029B00001F006FBE06010BD02480068C0F388101B
:1029C000704700000438024030B50246012300BFC2
:1029D0001068C0F3801038BBD1E9000420438C6834
:1029E0002043CC6820430C6920434C6920438C6908
:1029F0002043CC6920430C6A204314684FF6BF750E
:102A0000AC4320431060506820F004004C6940EA59
:102A100014405060086AB0F5005F04D1486A84B27F
:102A2000146100BF00BF0023D06920F40060D061B2
:102A3000184630BD016821F080010160704781684F
:102A400021F080018160704710B5024613682C4860
:102A500082420ED0B2F1804F0BD02A48824208D079
:102A60002948824205D02948824202D02848824221
:102A700004D123F070004C6840EA040320488242ED
:102A800020D0B2F1804F1DD01E4882421AD01E487D
:102A9000824217D01D48824214D01D48824211D074
:102AA0001C4882420ED01C4882420BD01B488242F6
:102AB00008D01B48824205D01A48824202D01A48E8
:102AC000824204D123F44070CC6840EA04031360CE
:102AD0008868D06200BF0888906200BF08488242C0
:102AE00002D00B48824203D10869106300BF00BFC7
:102AF00000BF506940F00100506100BF002010BDD0
:102B0000000001400004004000080040000C0040AC
:102B100000040140004001400044014000480140E1
:102B200000180040001C00400020004070B5024624
:102B3000012901D1002416E0042901D1012412E069
:102B4000102901D102240EE0402901D103240AE01A
:102B5000B1F5807F01D1042405E0B1F5806F01D18A
:102B6000052400E006242346064CE55C02F1180427
:102B700028190468044DEE5C0425B540AC4304609C
:102B800070BD0000B4680008BB68000870B502465C
:102B9000012901D1002416E0042901D1012412E009
:102BA000102901D102240EE0402901D103240AE0BA
:102BB000B1F5807F01D1042405E0B1F5806F01D12A
:102BC000052400E006242346064CE55C02F11804C7
:102BD00028190468044DEE5C0825B5402C430460B8
:102BE00070BD0000B4680008BB6800082DE9F04122
:102BF00006460C4615460127012C08D0102C0CD097
:102C0000B4F5807F0FD0B4F5805F18D111E029466C
:102C1000304600F03DFF074612E02946304600F0FE
:102C200077FF07460CE02946304600F0B7FF07461D
:102C300006E02946304600F0F1FF074600E000BFFD
:102C400000BF3846BDE8F08181637047426822F0DA
:102C500070020A434260704708B50168009100BFE6
:102C60004168009100BF08BD6FF02001016070470E
:102C7000016921F490410161416921F02A0141611A
:102C80007047C16841F40051C1607047C16841F4A8
:102C90000051C160704700BF00BF00F1140252E84C
:102CA000002F42F0400100F1140242E80013002B13
:102CB000F3D100BF704700BF00BF00F1140252E81B
:102CC000002F42F0800100F1140242E80013002BB3
:102CD000F3D100BF704700BF00BF00F10C0252E803
:102CE000002F42F0100100F10C0242E80013002B0B
:102CF000F3D100BF704700002DE9FF4104460D46A7
:102D000001270026204600F063F8002845D1E96835
:102D10006868084329690843A9690843E16849F2DA
:102D20000C6291430843E060A868216921F4405196
:102D30000143216100BF6869616921F44071014369
:102D4000616100BF6846FFF725FE1648844201D145
:102D5000039E17E01448844201D1029E12E01348FA
:102D6000844201D1029E0DE01148844201D1039EAC
:102D700008E01048844201D1029E03E00E488442DC
:102D800000D1029E4EB1286838B100273146204656
:102D90002B68AA6900F021F800BF384604B0BDE8EE
:102DA000F081000000100140004400400048004055
:102DB00000140140004C00400050004001460868EB
:102DC000C0F30010704701460868C0F34010704718
:102DD0000146C868C0F3403070472DE9FC5F0646E5
:102DE0000C4691461D46B9F5004F68D10220A0FB64
:102DF000057003461920A4FB00A001463A46504640
:102E0000FDF740FA6421B0FBF1F04FEA001A02200E
:102E1000A0FB05710B461920A4FB00B13A465846A9
:102E2000FDF730FA83460220A0FB05700346192007
:102E3000A4FB00013A46CDE90001FDF723FA642125
:102E4000B0FBF1F000EBC00101EB0010ABEB800038
:102E5000322101EBC0006421B0FBF1F000F0F8007A
:102E60000AEB400A0220A0FB057003461920A4FBD0
:102E700000B13A465846FDF705FA83460220A0FB0A
:102E8000057003461920A4FB00013A46CDE9000174
:102E9000FDF7F8F96421B0FBF1F000EBC00101EBA4
:102EA0000010ABEB8000322101EBC0006421B0FBCD
:102EB000F1F000F00700504480B2B06067E00420F9
:102EC000A0FB057003461920A4FB00A001463A466A
:102ED0005046FDF7D7F982460420A0FB0571192062
:102EE000A4FB00B084463A460B4658466146FDF7BF
:102EF000C9F96421B0FBF1F000EBC00101EB001057
:102F0000AAEB8000322101EB00106421B0FBF1F04C
:102F100000F0F00A0420A0FB057003461920A4FB72
:102F200000B001463A465846FDF7ACF96421B0FBC3
:102F3000F1F00AEB001A0420A0FB057003461920EB
:102F4000A4FB00B13A465846FDF79CF9834604209D
:102F5000A0FB057003461920A4FB00013A46CDE909
:102F60000001FDF78FF96421B0FBF1F000EBC00127
:102F700001EB0010ABEB8000322101EB001064216B
:102F8000B0FBF1F000F00F00504480B2B060BDE83B
:102F9000FC9F00001FB5002000900190029003905C
:102FA0000021174881621748154908604FF48030A6
:102FB00048600021124881600161017680F820108C
:102FC000C162114981620021C1600121C1610021FA
:102FD00080F8301001214161FDF720FE08B1FDF7B6
:102FE00053FD0D20009001200190002002906946C1
:102FF0000348FDF74DFD08B1FDF746FD1FBD00007C
:1030000044010020002001400100000F10B51048CD
:10301000104908600320486000210E488160C160AB
:103020004FF4002101614FF440114161002101760C
:1030300001214176002181760121C17600210177AD
:103040004177FEF782F908B1FDF71EFD10BD0000C3
:10305000006400408C01002010B510481049086041
:103060000320486000210E488160C1604FF40021B8
:1030700001614FF440114161002101760121417647
:10308000002181760121C176002101774177FEF789
:103090005CF908B1FDF7F8FC10BD000000680040C5
:1030A000B401002010B50548054908600846FEF740
:1030B00060FB08B1FDF7E8FC10BD000000300240E5
:1030C0000000002070B54FF48000FFF79BFA4FF42A
:1030D0000010FFF797FA01F003FA054600220521D8
:1030E00000F0B6FC044621460D2001F009FA0D203F
:1030F00001F0E9F901F0F4F905460022052100F09C
:10310000A7FC04462146102001F0FAF9102001F036
:10311000DAF901F0E5F905460022052100F098FCF6
:1031200004462146112001F0EBF9112001F0CBF902
:1031300001F0D6F905460022052100F089FC04467D
:103140002146392001F0DCF9392001F0BCF901F009
:10315000C7F905460022052100F07AFC0446214605
:103160003A2001F0CDF93A2001F0ADF901F0B8F9BB
:1031700005460022052100F06BFC0446214645204F
:1031800001F0BEF9452001F09EF901F0A9F90546CC
:103190000022052100F05CFC04462146462001F097
:1031A000AFF9462001F08FF970BD000000B587B07F
:1031B000142102A8FDF7B0F800BF00200190484894
:1031C000006840F01000464908600846006800F0BA
:1031D0001000019000BF00BF00BF00200190084612
:1031E000006840F0800008600846006800F0800039
:1031F000019000BF00BF00BF00200190084600689A
:1032000040F0040008600846006800F004000190E7
:1032100000BF00BF00BF002001900846006840F0DA
:10322000010008600846006800F00100019000BF3E
:1032300000BF00BF002001900846006840F0080071
:1032400008600846006800F00800019000BF00BF59
:1032500000BF002001900846006840F002000860AE
:103260000846006800F00200019000BF00BF002285
:1032700004211C48FEF7A2FB002220211A48FEF779
:103280009DFB01224FF47F411648FEF797FB012278
:103290009F211648FEF792FB4FF604700290012022
:1032A000039004900220059002A90E48FEF78CFAC4
:1032B000202002900120039004900220059002A992
:1032C0000948FEF781FA9F200290012003900490A4
:1032D0000220059002A90548FEF776FA07B000BD66
:1032E000303802400010024000080240000C02404A
:1032F00000B591B0282107A8FDF70EF8182101A804
:10330000FDF70AF84FF48050FFF798F90120FFF716
:1033100079F9E02001900220029003200390002020
:10332000049005900520069001A91448FFF796FA2D
:10333000002007904FF4827008900020099002202E
:103340000A9000200B904FF400700C9038200D90E4
:1033500080200E9000200F900A20109007A90848A6
:10336000FFF732FB00200649496821F010010143B4
:10337000034A516000BF11B000BD000000000240D0
:103380000030014030B585B014216846FCF7C4FF19
:103390004FF40030FFF752F901F0A2F80546002281
:1033A000052100F055FB04462146192001F0A8F83C
:1033B000192001F088F844F29F10ADF800000020B9
:1033C000019040F2E73002900020039069460448E3
:1033D000FFF73AFB0248FFF72DFB05B030BD0000B8
:1033E0000044014000B593B014210EA8FCF794FFEF
:1033F000202106A8FCF790FF18216846FCF78CFFF7
:103400000820FFF70DF95320ADF8380000200F9089
:1034100041F287301090002011900EA92548FFF747
:1034200013FB2448FFF706FB00202249896844F279
:103430000702914301431F4A916000BF01211046DA
:10344000FFF7A4FB602006900020079008900990E9
:103450000A9006AA01211748FFF7C8FB0121154869
:10346000FFF764FB10211348FFF790FB06AA102119
:103470001048FFF7BBFB10210E48FFF757FB002158
:103480000C48FFF7E3FB0B48FFF7D9FA0120FFF7E1
:10349000B9F80320009002200190002002900390D0
:1034A00004900220059069460348FFF7D7F913B04E
:1034B00000BD0000000C00400000024030B585B0A7
:1034C00014216846FCF728FF2020FFF7A9F801F037
:1034D00007F805460022052100F0BAFA0446214605
:1034E000372001F00DF8372000F0EDFF5320ADF844
:1034F0000000002001904FF6FF70029069460748D7
:10350000FFF7A2FA0548FFF795FA00210348FFF7F5
:103510009DFB0248FFF793FA05B030BD0014004050
:1035200030B58DB01C2106A8FCF7F6FE18216846C0
:10353000FCF7F2FE4FF40020FFF772F80420FFF7CB
:1035400061F84FF480600090022001900320029007
:103550000020039004900820059069463548FFF745
:103560007DF94FF40060009002200190032002904A
:1035700000200390012004900820059069462D4802
:10358000FFF76CF94FF0006202212B48FFF7BCF8FF
:10359000002202212848FFF7E3F84FF440320221CD
:1035A0002548FFF74DF94FF4807202212248FFF7BA
:1035B00015F9002202212048FFF726F94FF4806216
:1035C00002211D48FFF7EEF8002202211A48FFF7FA
:1035D00029F9002202211848FFF7F2F802211648C3
:1035E000FFF742F800F07CFF05460022052100F0BD
:1035F0002FFA04462146342000F082FF342000F0E8
:1036000062FF0E4806900020079008904FF48060FB
:10361000099004200A9000200B900C9006A90848FD
:10362000FFF76AFB0648FFF723FB0548FFF729FB76
:103630000DB030BD0008024000600240A0860100CD
:10364000004C004030B58DB01C2106A8FCF764FE8C
:1036500018216846FCF760FE1020FEF7EFFF0120FE
:10366000FEF7D0FF4FF4C0600090022001900320CD
:10367000029000200390049007200590694644487A
:10368000FFF7ECF84FF0006202214248FFF73CF8E8
:10369000002202213F48FFF763F84FF44032022135
:1036A0003C48FFF7CDF84FF4807202213948FFF70C
:1036B00095F8002202213748FFF7A6F84FF4806200
:1036C00002213448FFF76EF8002202213148FFF74B
:1036D000A9F8002202212F48FFF772F802212D4895
:1036E000FEF7C2FF4FF0006207212A48FFF70CF8EF
:1036F000402207212748FFF733F84FF40032072113
:103700002448FFF79DF8002207212248FFF766F8BA
:10371000002207211F48FFF777F84FF48062072146
:103720001C48FFF73FF8002207211A48FFF77AF8F4
:10373000002207211748FFF743F807211548FEF735
:1037400093FF00F0CDFE05460022052100F080F930
:1037500004462146252000F0D3FE252000F0B3FECC
:103760004FF41650069000200790089009900C2006
:103770000A9000200B900C9006A90748FFF7BCFAAE
:103780000548FFF775FA0448FFF77BFA0DB030BD26
:1037900000000240006402400010014030B58DB0CE
:1037A0001C2106A8FCF7B8FD18216846FCF7B4FDFB
:1037B0004FF40030FEF734FF0820FEF723FF6020AF
:1037C00000900220019003200290002003900490BA
:1037D0000720059069464448FFF740F84FF0006223
:1037E00005214248FEF790FF002205213F48FEF7E1
:1037F000B7FF4FF4403205213C48FFF721F84FF462
:10380000807205213948FEF7E9FF0022052137487B
:10381000FEF7FAFF4FF4806205213448FEF7C2FF3D
:10382000002205213148FEF7FDFF002205212F4827
:10383000FEF7C6FF05212D48FEF716FF4FF0006288
:1038400006212A48FEF760FF402206212748FEF79E
:1038500087FF4FF4003206212448FEF7F1FF0022D3
:1038600006212248FEF7BAFF002206211F48FEF774
:10387000CBFF4FF4806206211C48FEF793FF002225
:1038800006211A48FEF7CEFF002206211748FEF750
:1038900097FF06211548FEF7E7FE00F021FE0546DA
:1038A0000022052100F0D4F804462146262000F02D
:1038B00027FE262000F007FE4FF4E130069000209E
:1038C0000790089009900C200A9000200B900C9013
:1038D00006A90748FFF710FA0548FFF7C9F9044899
:1038E000FFF7CFF90DB030BD000C02400060024080
:1038F0000044004030B58DB01C2106A8FCF70CFD3B
:1039000018216846FCF708FD2020FEF797FE0420EA
:10391000FEF778FEC0200090022001900320029064
:103920000020039004900820059069464348FEF764
:1039300095FF4FF0206201214148FEF7E5FE00228D
:1039400001213F48FEF70CFF4FF4403201213C4873
:10395000FEF776FF002201213948FEF73FFF0022E3
:1039600001213748FEF750FF4FF4806201213448AF
:10397000FEF718FF002201213148FEF753FF002215
:1039800001212F48FEF71CFF01212D48FEF76CFE98
:103990004FF0206206212A48FEF7B6FE402206219B
:1039A0002748FEF7DDFE4FF4003206212448FEF7DB
:1039B00047FF002206212248FEF710FF00220621C1
:1039C0001F48FEF721FF4FF4806206211C48FEF7D6
:1039D000E9FE002206211A48FEF724FF00220621F4
:1039E0001748FEF7EDFE06211548FEF73DFE00F0F4
:1039F00077FD05460022052100F02AF804462146FD
:103A0000472000F07DFD472000F05DFD4FF4E130E0
:103A1000069000200790089009900C200A90002042
:103A20000B900C9006A90748FFF766F90548FFF7C9
:103A30001FF90448FFF725F90DB030BD000802401A
:103A4000006402400014014000BFFEE700BFFEE733
:103A5000F0B503460C4603F00701C1F10700042846
:103A600001D9042001E0C1F107000646081D07281E
:103A700001D2002000E0C81E05460120B040401ED3
:103A80002040A8400127AF407F1E17403843F0BDBB
:103A900070B50246106A20F001001062136A556882
:103AA000946924F0030424F070000E6840EA0604D0
:103AB00023F002000E6940EA060323F001004E687D
:103AC00040EA06031048824202D01048824213D1D5
:103AD00023F008004E6940EA860323F004008E6854
:103AE00040EA860325F480708E6940EA060525F4D5
:103AF0000070CE6940EA460555609461C86850631D
:103B000000BF1362002070BD0000014000040140AE
:103B10002DE9F04104460D46206A20F01000206295
:103B2000266AD4F80480A76927F4407727F4E04098
:103B3000296840EA012726F02000296940EA011699
:103B400026F01000696840EA01161248844202D04B
:103B50001148844213D126F08000696940EA811639
:103B600026F04000A96840EA811628F48060A9691F
:103B700040EA810828F40060E96940EAC108C4F815
:103B80000480A7612046E968FFF75EF826620020FE
:103B9000BDE8F081000001400004014070B502461C
:103BA000106A20F480701062136A5568D46924F09A
:103BB000030424F070000E6840EA060423F4007049
:103BC0000E6940EA062323F480704E6840EA06231B
:103BD0001048824202D01048824213D123F4006080
:103BE0004E6940EA862323F480608E6840EA86238B
:103BF00025F480508E6940EA061525F40050CE6900
:103C000040EA46155560D461C868D06300BF1362AE
:103C1000002070BD000001400004014070B5024664
:103C2000106A20F480501062146A5568D36923F436
:103C3000407323F4E0400E6840EA062324F4005069
:103C40000E6940EA063424F480504E6840EA063497
:103C50000948824202D00948824204D125F48040BA
:103C60008E6940EA86155560D361C868106400BF4C
:103C70001462002070BD00000000014000040140FB
:103C8000B0EE401A90ED100A80ED110A90ED0F0A87
:103C900080ED100AC0ED060A80ED071A30EEC10A69
:103CA00080ED0F0A90ED0F0AD0ED131AB4EEE10A81
:103CB000F1EE10FA0ADA90ED0F0AD0ED131AF1EED8
:103CC000611AB4EEE10AF1EE10FA02D80021816423
:103CD00001E001218164016800297BD190ED010A96
:103CE000D0ED0F1A20EE210A80ED090A90ED120A9C
:103CF000B8EEC00AD0ED021A60EE211A90ED0F2A3C
:103D000090ED0A0A01EE820A80ED0A0A90ED0D0A92
:103D100080ED0E0A90ED0C0A80ED0D0A90ED0F0A71
:103D2000D0ED101A30EE610A80ED0C0A90ED030A16
:103D3000D0ED0C1A20EE210A80ED0B0A90ED0A0A54
:103D4000D0ED051AB4EEE10AF1EE10FA04DD90EDC3
:103D5000050A80ED0A0A10E090ED0A0AD0ED051A76
:103D6000F1EE611AB4EEE10AF1EE10FA05D290ED2F
:103D7000050AB1EE400A80ED0A0A90ED090AD0ED7D
:103D80000A1A30EE210AD0ED0B1A30EE210A80ED2E
:103D9000080A90ED080AD0ED041AB4EEE10AF1EE3B
:103DA00010FA04DD90ED040A80ED080A7CE090ED45
:103DB000080AD0ED041AF1EE611AB4EEE10AF1EE50
:103DC00010FA71D290ED040AB1EE400A80ED080AB3
:103DD0006AE0FFE70168012966D190ED0F0AD0ED96
:103DE000101A30EE610AD0ED011A20EE210A80EDA2
:103DF000090A90ED120AB8EEC00AD0ED021A20EEC0
:103E0000210AD0ED0F1A20EE210A80ED0A0A90ED6A
:103E10000D0A80ED0E0A90ED0C0A80ED0D0A90ED72
:103E20000F0AD0ED101AB0EE002A02EE610AD0EDB2
:103E3000111A30EE210A80ED0C0A90ED030AD0ED44
:103E40000C1A20EE210A80ED0B0A90ED090AD0ED44
:103E50000A1A30EE210AD0ED0B1A30EE210AD0ED0D
:103E6000081A30EE210A80ED080A90ED080AD0ED1C
:103E7000041AB4EEE10AF1EE10FA04DD90ED040A42
:103E800080ED080A10E090ED080AD0ED041AF1EE7A
:103E9000611AB4EEE10AF1EE10FA05D290ED040ACF
:103EA000B1EE400A80ED080A9FED010A704700005C
:103EB00000000000016080ED010AC0ED020A80ED03
:103EC000031AC0ED041A80ED052AC0ED132A9FEDF8
:103ED0000C3A80ED0E3A80ED0D3A80ED0C3A9FEDF4
:103EE000083A80ED083A80ED0B3A80ED0A3A80ED11
:103EF000093A80ED113A80ED103A80ED0F3A7047A3
:103F000000000000B0EE402AF0EE411A9FED1A0AC0
:103F1000B0EE401A32EE600AB0EE401AB5EEC01AAA
:103F2000F1EE10FA0EDDB4EEE11AF1EE10FA04DD56
:103F300030EEA10AF0EE400A1BE030EE810AF0EE0E
:103F4000400A16E0B5EEC01AF1EE10FA11D8B1EE43
:103F5000610AB4EEC01AF1EE10FA06D2B1EE610AAF
:103F600030EE800AF0EE400A03E030EE810AF0EE17
:103F7000400AB0EE600A704700000000014600BF32
:103F80000448006800F0F0000009034A125C21FABE
:103F900002F0704708380240F4680008014600BF8C
:103FA0000548006800F4E050044A02EB90200278D3
:103FB00021FA02F070470000083802400469000846
:103FC000014600BF0548006800F46040044A02EB67
:103FD0005030027821FA02F07047000008380240A1
:103FE0000469000810B5002400BF0C48006800F008
:103FF0000C0020B1042804D0082809D103E0084CA3
:1040000008E0084C06E0082000F00EF8044601E045
:10401000034C00BF00BF204610BD0000083802401E
:104020000024F40000127A002DE9F0410446002536
:104030000026002700BF1548006800F480000646EF
:104040001EB1B6F5800F04D101E0114D03E0114D12
:1040500001E00F4D00BF00BF082C14D100BF0B487A
:10406000006800F03F00B5FBF0F8FEF7A5FC08FB88
:1040700000F80648006800F44030012101EB1040D0
:104080004000B8FBF0F73846BDE8F0810438024044
:104090000024F40000127A0012E04FF0FF33094AC6
:1040A0001946002002F030FB012809D105480068BC
:1040B0000078042804D103490968486800F012FD1B
:1040C000EBE70000380000200146002901DD08462A
:1040D0007047484200B2FBE710B500F01BF900F052
:1040E00007F900F0E7FC00F0DDFF10BD00BFFFF7AF
:1040F000F3FF0248006800F0E4FEF8E70800002043
:1041000010B500BF502080F31188BFF34F8FBFF36D
:104110006F8F00BF02F054FA18B14FF0805004497D
:10412000086000BF002080F3118800BF10BD0000B0
:1041300004ED00E000B593B0302107A8FCF7ECF8DF
:10414000142102A8FCF7E8F800BF002001902448E1
:10415000006840F08050224908600846006800F07E
:104160008050019000BF00BF00BF002001901D489B
:10417000006840F480401B4908600846006800F46D
:104180008040019000BF00BF01200790000408900C
:1041900002200D9041050E9104210F91A82110914C
:1041A000022111910421129107A8FDF775FE08B1B3
:1041B000FCF76AFC0F20029002200390002004907C
:1041C0004FF4A05005904FF480500690052102A8AE
:1041D000FDF710FD08B1FCF757FC13B000BD00005F
:1041E00040380240007000400348006840F470000E
:1041F000014908607047000088ED00E0704700004A
:1042000010B53349334800F0F1F93349334800F031
:10421000EDF9334B20223349A1F1200000F05CFA84
:10422000314B20223149A1F1200000F0A5FA40F2E3
:10423000FF3340F2012200212648FCF7A7F940F2A3
:10424000FF3340F2022208212248FCF79FF940F296
:10425000FF3340F2032210211E48FCF797F940F289
:10426000FF334FF4017218211A48FCF78FF940F21E
:10427000FF334FF4A26220211648FCF787F940F281
:10428000FF3340F2213230211248FCF77FF940F22F
:10429000FF3340F201227C211048FCF777F940F20D
:1042A000FF3340F2022284210C48FCF76FF940F200
:1042B000FF3340F203228C210848FCF767F940F2F3
:1042C000FF334FF4017294210448FCF75FF910BDED
:1042D000B54400088C010020C5440008B40100204A
:1042E000194D0008A003002071450008E0030020DC
:1042F0007047000010B5012000F05CF9034B242248
:104300000349A1F1240000F0A3F910BD694C000895
:10431000240400201CB50548072100238022CDE994
:10432000001003A1044802F007F81CBD240000207F
:1043300072635F7461736B009940000810B50022CE
:1043400010210948FDF73AFBFDF74EFD07490860CB
:10435000FFF7D0FFFFF754FFFFF750FF01221021B6
:104360000148FDF72BFB10BD000C0240200000208F
:104370007047704710B50248FEF767F810BD00009F
:104380003803002010B500F07DF810BD10B50268AC
:10439000294B98420ED0B0F1804F0BD0274B98425A
:1043A00008D0274B984205D0264B984202D0264B86
:1043B000984203D122F070024B681A431E4B984278
:1043C00020D0B0F1804F1DD01C4B98421AD01C4B0E
:1043D000984217D01B4B984214D01B4B984211D0D7
:1043E0001A4B98420ED01A4B98420BD0194B984258
:1043F00008D0194B984205D0184B984202D0184B60
:10440000984203D122F44072CB681A4322F0800311
:104410004C6943EA040202608B68C3620B688362E2
:10442000054B984202D0084B984201D10B690363B7
:104430000123436110BD0000000001400004004062
:1044400000080040000C0040000401400040014012
:10445000004401400048014000180040001C00409A
:104460000020004010B501F0E5F910BD10B501F0D5
:1044700073FA10BD10B501F0F3FA10BD10B501F0DC
:104480007BFB10BD00BF0848006900F0010050B17F
:1044900000BF6FF001000449086100BF03480068D5
:1044A000401C024908607047001400408000002052
:1044B00000BFFEE710B5044604F11C012068FCF7BC
:1044C0008DF910BD7047002809DB00F01F020121A3
:1044D00091404209920002F1E022C2F800117047B7
:1044E00002480068C0F30220704700000CED00E0B5
:1044F00002480068C0F30220704700000CED00E0A5
:1045000010B5002804DB0A07130E054A135406E011
:104510000A07140E034A00F00F031B1FD45410BDEA
:1045200000E400E018ED00E010B5002804DB0A0705
:10453000130E054A135406E00A07140E034A00F04E
:104540000F031B1FD45410BD00E400E018ED00E081
:1045500002E008C8121F08C1002AFAD1704770474C
:10456000002001E001C1121F002AFBD170470000AA
:1045700038B504460D46042D14D12078AA2811D14F
:10458000681E205CBB280DD1022007490870084630
:104590004460064800680023032200900448006835
:1045A00001F05AFF38BD00005400002050000020E8
:1045B000400000200B49087000BF0B49C96841F05A
:1045C0000101094AD16000BF00BF6FF00101116114
:1045D00000BF00BF1146096841F00101116000BF32
:1045E00070470000840000200014004070B50446AD
:1045F0000D462046FDF787F82068406920F400400A
:10460000216848612068406940F0020021684861E3
:104610002068406940F0100021684861084920681E
:10462000884203D107480560002070BD0649206814
:10463000884203D1054805600020F6E70120F4E731
:104640000064004078000020006800407C000020EA
:104650002DE9F04104460D4616461F461B48A0F8BA
:10466000406044648564C764194A02211948FEF712
:10467000C3F8224602211748FEF78CF82A46022189
:104680001448FEF77BF8324602211248FEF758F82C
:1046900002211048FEF702F802210E48FDF7F2FF52
:1046A00002210C48FEF706F80948001FFEF7F3FA4E
:1046B0000748001FFEF70FFB0548001FFEF7CCFA66
:1046C0000348001FFEF7E2FABDE8F08194040020E1
:1046D000044C0040006002402DE9F04104460D46C4
:1046E00016461F462148068244618561C761204AFB
:1046F00002212048FEF780F8224602211D48FEF7DD
:1047000049F82A4602211B48FEF738F832460221B2
:104710001848FEF715F802211648FDF7BFFF0221E1
:104720001448FDF7AFFF02211248FDF7C3FF104AFE
:1047300007211048FEF760F807210E48FDF7A2FF99
:104740000B48001FFEF7A7FA0948001FFEF7B3FA4F
:104750000748001FFEF7BFFA0548001FFEF77CFA66
:104760000348001FFEF792FABDE8F0819404002090
:1047700004100140006402402DE9F04104460D465A
:1047800016461F462148068444628562C762204A55
:1047900005212048FEF730F8224605211D48FDF787
:1047A000F9FF2A4605211B48FDF7E8FF324605219F
:1047B0001848FDF7C5FF05211648FDF76FFF0521D5
:1047C0001448FDF75FFF05211248FDF773FF104AFB
:1047D00006211048FEF710F806210E48FDF752FF9B
:1047E0000B48001FFEF757FA0948001FFEF763FA4F
:1047F0000748001FFEF76FFA0548001FFEF72CFA66
:104800000348001FFEF742FABDE8F081940400203F
:10481000044400400060024001604260704770B58F
:1048200004460D4694ED9D0ABDEEC00A10EE106AD6
:1048300033B294ED6D0ABDEEC00A10EE106A32B2CA
:1048400094ED3D0ABDEEC00A10EE106A31B294ED4F
:104850000D0ABDEEC00A10EE106A30B2A84770BD56
:1048600070B505460C4600231A4619461846A0475F
:1048700070BD70B504460D46D4ED020AB0EE600A74
:1048800004F10800A847D4ED320AB0EE600A04F142
:10489000C800A847D4ED620AB0EE600A04F5C470FF
:1048A000A847D4ED920AB0EE600A04F51270A8474A
:1048B00070BD000070B505460E46002408E004EB0C
:1048C000440205F1080101EB82100349B047641C62
:1048D000042CF4DB70BD0000F000002010B503468E
:1048E0000C464FF4FA6241F288310248FFF794FF18
:1048F00010BD00007C45002070B52DED068B0446F0
:104900000D464B48B0F9040000EE100AF8EEC00A5C
:1049100094ED000AB8EEC00A20EE800ADFED450AE9
:1049200080EE201AB0EE41AA4148B0F9060000EE30
:10493000100AF8EEC00A94ED000AB8EEC00A20EEA4
:10494000800ADFED3C0A80EE201AF0EE41AA3848DA
:10495000B0F9000000EE100AF8EEC00A94ED010A6A
:10496000B8EEC00A20EE800ADFED320A80EE201A8F
:10497000B0EE419AB5EEC0AAF1EE10FA0AD0B1EE4F
:10498000041AF0EE480AB0EE4A0AFFF7BBFAB0EE9E
:10499000408A01E09FED288AF5EEC0AAF1EE10FAF8
:1049A0000AD0B1EE041AF0EE680AB0EE6A0AFFF718
:1049B000A9FAF0EE408A01E0DFED1F8AF0EE499A95
:1049C00078EE280AB0EE699A9FED1C1AB0EE490AFB
:1049D00001EE200A84ED020A78EE680AB0EE699AC8
:1049E0009FED161AB0EE490A01EE200A84ED320A54
:1049F000B1EE480A70EE280AB0EE699A9FED0F1AE0
:104A0000B0EE490A01EE200A84ED620AB1EE480ACE
:104A100070EE680AB0EE699A9FED081AB0EE490A86
:104A200001EE200A84ED920ABDEC068B70BD0000F9
:104A30008804002000002544000000000000AF436F
:104A400016491748FFF736FF26E0164800F08AFEA1
:104A500001280DD0134800F085FE032811D112491A
:104A60000F48FFF73BFF10490D48FFF745FF08E0EF
:104A70000C4800F077FE012803D10C490848FFF7E5
:104A8000EFFE0B490648FFF7F4FE08490448FFF71C
:104A9000C6FE012001F04EFAD7E7000017510008CA
:104AA0007C45002088040020F9570008AD4D00081F
:104AB0002D4E00081CB50548192100238022CDE9A0
:104AC000001003A1064801F037FC1CBD3C0100208A
:104AD000636861737369735F7461736B00000000D6
:104AE000414A000810B5044604B910BD2078617829
:104AF00040EA0120C0F30A005A4908806078C010DB
:104B0000A17840EA4110C0F30A0056494880A078D5
:104B10008011E17840EA8100217940EA8120C0F3E8
:104B20000A005049888020794010617940EAC1101C
:104B3000C0F30A004B49C8806079C0F30110887245
:104B40006079001181084748C172207C617C40EA8D
:104B5000012000B24349088108460088A0F5806022
:104B600000B2088008464088A0F5806000B2488006
:104B700008468088A0F5806000B288800846C0881A
:104B8000A0F5806000B2C88008460089A0F580606A
:104B900000B208810846B0F90200052807DC084683
:104BA000B0F9020010F1050F01DB002048802D480C
:104BB000B0F90400052808DC2A48B0F9040010F117
:104BC000050F02DB0020274988802648B0F906003F
:104BD000052808DC2348B0F9060010F1050F02DBB8
:104BE00000202049C8801F48B0F90800052808DCCB
:104BF0001C48B0F9080010F1050F02DB002019492C
:104C000008811848B0F9060010F5257F02D1002070
:104C10001449C8801349B1F90200FFF755FAB0F5FD
:104C2000257F17DC0F49B1F90400FFF74DFAB0F505
:104C3000257F0FDC0B49B1F90600FFF745FAB0F507
:104C4000257F07DC0749B1F90800FFF73DFAB0F509
:104C5000257F05DD0020034948808880C8800881C1
:104C600000BF42E78804002038B504460D46122DE7
:104C70000DD10420064908700846446005480068C4
:104C80000023032200900448006801F0E5FB38BDD2
:104C9000300000202C0000202400002088B0FCF709
:104CA000A5FEFFF747FAFEF781FAFEF70BFAFEF7CB
:104CB00037FCFEF703FCFEF7A9F9FEF7CDF9FEF786
:104CC000C1FCFEF7EFF9FEF769FDFEF78BFBFEF77F
:104CD0000FFBFEF75FF9FEF70DFEFEF753FBFFF744
:104CE0002DFB1C22064901A8FBF7FDFA002101A8B3
:104CF00000F0B8F80349086000F0AFF800BFFEE725
:104D0000D86800080800002001460020842901D04E
:104D1000CA1C10447047000038B504460D460C2DDF
:104D200014D12078552811D1681E205CAA280DD1F5
:104D300001200749087008464460064800680023BF
:104D4000032200900448006801F086FB38BD000093
:104D500048000020440000204000002010B52DED48
:104D6000028B0446B0EE408AB4F9B20000EE900A1D
:104D7000F8EEE00AB0EE600AF0EE480A04F15C00DA
:104D8000FEF77EFF94ED1F1AF0EE410AB4F9B4006D
:104D900001EE100AB8EEC11AB0EE410A04F10C009F
:104DA000FEF76EFFBDEC028B10BD00002DE9F04157
:104DB00007460C4615461E46380A0A4908704F70C9
:104DC000200A8870CC70280A08714D71300A8871E9
:104DD000CE7108230A4699010348FBF70FFCBDE892
:104DE000F0810000600000208C0100202DE9F041DE
:104DF00007460C4615461E46380A0A4908704F7089
:104E0000200A8870CC70280A08714D71300A8871A8
:104E1000CE7108230A4699010348FBF7EFFBBDE872
:104E2000F081000068000020B401002010B52DEDD5
:104E3000028B0446B0EE408AB4F9B40000EE900A4A
:104E4000F8EEE00AB0EE600AF0EE480A04F10C0059
:104E5000FEF716FFBDEC028B10BD10B501F012F984
:104E6000002010BD7FB504460D46606998B1A06969
:104E700088B1B4F90800FFF747FF0646D4E90510EA
:104E8000CDE9006102902B462269D4E9001001F0BF
:104E900085FA039013E0B4F90800FFF735FF0646E2
:104EA00003A8CDE90060238A9AB22B46D4E900100A
:104EB00001F042FA012802D0002004B070BD03982E
:104EC000FBE710B50446204601F062F8002010BD53
:104ED00070B504460D4616460B492046A8470B49B7
:104EE0002046B047084904F1C000A847074904F12B
:104EF000C000B047044904F51070A847034904F501
:104F00001070B04770BD0000080100202001002093
:104F100070B504460D461646044904F5C070A8470E
:104F2000034904F5C070B04770BD000008010020BF
:104F30002001002070B504460D46D4ED010AB0EE04
:104F4000600A2046A847D4ED310AB0EE600A04F1A9
:104F5000C000A847D4ED610AB0EE600A04F5C07045
:104F6000A847D4ED910AB0EE600A04F51070A84786
:104F700070BD70B504460D4694ED6B0ABDEEC00AD7
:104F800010EE103A1AB294ED3B0ABDEEC00A10EED4
:104F9000103A19B294ED9B0ABDEEC00A10EE103A19
:104FA00018B20023A84770BD9FED1B0A80ED300AA0
:104FB00090ED310A194AB2F9082000EE902AF8EE75
:104FC000E00A9FED171A00EEC10A80ED310A9FED4D
:104FD000120A80ED600A90ED610A104AB2F90820C9
:104FE00000EE902AF8EEE00A9FED0D1A00EEC10ADD
:104FF00080ED610A9FED0B0A80ED900A074AB2F935
:10500000002000EE102AB8EEC00ADFED050A20EEFF
:10501000200A80ED910A704700002FC48804002008
:10502000CDCCCC3D00009643164A17491748FFF7F0
:105030004FFF144A14491548FFF76AFF20E014484F
:1050400000F090FB012810D0114800F08BFB0228E3
:105050000BD110490D48FFF7A7FF0F490D48FBF78B
:10506000E7FA0C490C48FBF71DFB0C490748FFF712
:1050700080FF0B490548FFF75DFF012000F05AFF54
:10508000DDE70000D5500008175100087C420020E1
:1050900088040020F957000838010020ED4D000871
:1050A0005D4D00081CB50648192100234FF480729D
:1050B000CDE9001003A1064801F03EF91CBD000037
:1050C000400100207069636B5F7461736B000000C6
:1050D0002950000870B505460C4694ED053AF0EEEF
:1050E000432A94ED043AB0EE432A94ED033AF0EEED
:1050F000431A94ED023AB0EE431A94ED013AF0EE01
:10510000430A94ED003AB0EE430A002105F15C0039
:10511000FEF7D0FE70BD70B505460C4694ED053A1D
:10512000F0EE432A94ED043AB0EE432A94ED033AAC
:10513000F0EE431A94ED023AB0EE431A94ED013AC0
:10514000F0EE430A94ED003AB0EE430A002105F177
:105150000C00FEF7AFFE70BD2DE9F04105460E468E
:105160001C4807681C480068001D00F0A1FD50B9EC
:105170001948006890F82C100120884017490968E8
:10518000814316480160681C38B936B1124801687D
:10519000091D134800F0D7FD1AE07C190E4800687D
:1051A0004460BC4207D20C480168091D0D480068E4
:1051B00000F0AFFD0CE008480168091D0A480068CE
:1051C00000F0A7FD09480068844201D20748046046
:1051D000BDE8F0819C00002088000020A000002095
:1051E00068060020900000208C000020B8000020FD
:1051F00010B5044600F0B4FD24480068401C234963
:1052000008602348006840B92148046008460068E7
:1052100001280DD100F048F90AE01E48006838B9AD
:105220001B480068C06AE16A884201D818480460D7
:1052300019480068401C1849086008460068606406
:1052400094F82C1001208840144909680843134938
:105250000860E16A01EB8101114A02EB8100211D26
:1052600000F071FD00F0A6FD0A48006868B108482A
:105270000068C06AE16A884207D24FF0805009494D
:105280000860BFF34F8FBFF36F8F10BD98000020F1
:1052900088000020A4000020B4000020A00000200E
:1052A0008C05002004ED00E010B516E000F058FD7C
:1052B0000C48C068C468201D00F0FAFC0A48006869
:1052C000401E0949086009480068401E07490860F7
:1052D00000F070FD204600F00BF80448006800283C
:1052E000E4D110BD54060020980000209400002056
:1052F00010B5044694F8590030B9206B00F078FDE1
:10530000204600F075FD1AE094F85900012803D1F9
:10531000204600F06DFD12E094F85900022801D1FA
:10532000012000E0002050B900BF502080F3118818
:10533000BFF34F8FBFF36F8F00BF00BFFEE710BDFD
:1053400030B54FF47053174800F007042CB1C01D5E
:1053500020F00700134C041B1B1B0246124C22605A
:105360000024114D6C60D018083820F007000F4C55
:10537000206000240D4D2D686C600C4D2D682C6054
:105380001146441A4C60094C24680C60084D4C6866
:105390002C60084D4C682C604FF00044064D2C608A
:1053A00030BD00007C060020C4000020CC0000209E
:1053B000D4000020D0000020E000002000BFFFF754
:1053C00073FF07480068012807D94FF0805005494E
:1053D0000860BFF34F8FBFF36F8F00F089FCEEE7DB
:1053E0008C05002004ED00E02DE9F05F82460E46BA
:1053F00090469B460A9F0C9C4FEA8801A522206B91
:10540000FAF783FFA8F10100216B01EB800929F075
:10541000070909F0070008B9012000E0002050B991
:1054200000BF502080F31188BFF34F8FBFF36F8F01
:1054300000BF00BFFEE786B1002507E0715D04F103
:1054400034004155705D00B902E06D1C102DF5D39C
:1054500000BF00214320015502E0002084F8340001
:10546000072F00D30627E762E76400202065201D90
:1054700000F04CFC04F1180000F048FC2461C7F176
:105480000700A06164620020606584F858005A46F5
:105490005146484600F050F920600B9808B10B982F
:1054A0000460BDE8F09F000010B5002407E004EBA5
:1054B00084010F4A02EB810000F01BFC641C072CE6
:1054C000F5D30C4800F015FC0B4800F012FC0B481B
:1054D00000F00FFC0A4800F00CFC0A4800F009FC40
:1054E00004480949086004480849086010BD0000E4
:1054F0008C050020180600202C0600204006002005
:1055000054060020680600208C0000209000002037
:1055100010B50146164800E0006803688B42FBD3D3
:105520000246436813448B4204D143684C682344C9
:10553000436001460A464B6813440468A34211D1F4
:105540000C4C03682468A34208D04B680468646864
:1055500023444B6003681B680B6005E0054B1B6828
:105560000B6001E003680B60884200D0016010BD51
:10557000C4000020CC0000200A490968096809B964
:10558000012100E0002121B14FF0FF31064A1160F6
:1055900006E004490968C968C868034A416811609F
:1055A000704700008C000020B80000200E48006802
:1055B000401C08B9012000E0002050B900BF502075
:1055C00080F31188BFF34F8FBFF36F8F00BF00BF11
:1055D000FEE700BF502080F31188BFF34F8FBFF369
:1055E0006F8F00BF00BFFEE7E40000202DE9F0410F
:1055F00004464FF0000800F09DFD4948006808B9D6
:10560000FFF79EFE474800682040002870D1D4B1C3
:10561000083404F00700B0B104F00700C0F108003E
:10562000044404F0070008B9012000E0002050B94C
:1056300000BF502080F31188BFF34F8FBFF36F8FEF
:1056400000BF00BFFEE7002C52D0374800688442FC
:105650004ED8364E3046056801E02E462D68686803
:10566000A04202D228680028F7D12D480068854260
:105670003ED0306800F10808286830606868001B78
:10568000102819D92F1907F0070008B9012000E0E8
:10569000002050B900BF502080F31188BFF34F8F16
:1056A000BFF36F8F00BF00BFFEE76868001B786024
:1056B0006C603846FFF72CFF1B4968680968081AB8
:1056C000194908600846006819490968884203D2E8
:1056D0001548006816490860124968680968084357
:1056E00068600020286013480068401C1149086069
:1056F00001F05AF808F0070008B9012000E0002086
:1057000050B900BF502080F31188BFF34F8FBFF313
:105710006F8F00BF00BFFEE74046BDE8F08100008C
:10572000CC000020E0000020D0000020C4000020B9
:10573000D4000020D8000020001F4FF080730360C9
:10574000001F21F001030360001F054B03601438A4
:105750000260001F6FF002030360203870470000F2
:10576000AD5500080146887A022804D1C87A02287B
:1057700001D101207047887A022804D1C87A012813
:1057800001D10020F6E7887A022804D1C87A0328DC
:1057900001D10420EEE7887A012804D1C87A0128D3
:1057A00001D10220E6E7887A012804D1C87A0328CB
:1057B00001D10420DEE7887A012804D1C87A0228C2
:1057C00001D10020D6E7887A032804D1C87A0128BD
:1057D00001D10020CEE7887A032803D1C87A0328B4
:1057E00000D1C7E7887A032804D1C87A022801D1FA
:1057F0000020BFE70020BDE70EB50A88ADF8002005
:105800004A88ADF802208A88ADF80420CA88ADF82D
:1058100006200A89ADF808208A7A8DF80A20CB7A0A
:105820008DF80B30009A0260019A4260029A826001
:105830000EBD000010B54448FDF7C5FA012803D19C
:105840004148FDF711FA7EE03F48FDF7B7FA01281D
:1058500079D13D48FDF700FA02213C48FCF736FFBC
:10586000002839D102213948FCF70CFF03E002215E
:105870003648FCF707FF02213448FCF73BFF0028BD
:10588000F5D13248FCF7ECFE3048FCF7E5FE4FF46A
:10589000002202212D48FCF745FF02212B48FCF78E
:1058A0001FFF2B49B1F84010081A2A4908802748E1
:1058B000FCF7D6FE2548FCF7CFFE02212348FCF773
:1058C000F9FE2348C06C00283DD02149486CCA6CC1
:1058D00020490988904736E002211C48FCF7D2FE97
:1058E00003E002211948FCF7CDFE02211748FCF71E
:1058F00001FF0028F5D11548FCF7B2FE1348FCF76C
:10590000ABFE002202211148FCF70CFF02210F48D8
:10591000FCF7E6FE0E49B1F84010081A0D49088060
:105920000A48FCF79DFE0948FCF796FE022107484D
:10593000FCF7C0FE0648C06C28B10549886CCA6CEB
:1059400004490988904710BD004C004000600240A7
:10595000940400207000002010B53D48FDF733FA94
:10596000012803D13A48FDF77FF970E03848FDF788
:1059700025FA01286BD13648FDF76EF9022135482A
:10598000FCF7A4FE90BB02213248FCF77BFE03E04B
:1059900002213048FCF776FE02212E48FCF7AAFED1
:1059A0000028F5D12B48FCF75BFE2A48FCF754FE93
:1059B0004FF4002202212748FCF7B4FE02212548BB
:1059C000FCF78EFE2449098A081A2449088002211E
:1059D0002048FCF76FFE2048C069002837D01E49D8
:1059E0004869CA691D490988904730E0FFE70221EC
:1059F0001848FCF747FE03E002211648FCF742FE78
:105A000002211448FCF776FE0028F5D11148FCF776
:105A100027FE1048FCF720FE002202210D48FCF76B
:105A200081FE02210B48FCF75BFE0B49098A081A2C
:105A30000A49088002210748FCF73CFE0648C06975
:105A400028B105498869CA6904490988904710BD89
:105A50000010014000640240940400207200002005
:105A600010B54148FDF7AFF9012803D13E48FDF7D5
:105A7000FBF877E03C48FDF7A1F9012872D13A48DC
:105A8000FDF7EAF805213948FCF720FEA8BB0521FF
:105A90003648FCF7F7FD03E005213448FCF7F2FD3A
:105AA00005213248FCF726FE0028F5D100BF4FF44F
:105AB00000602E49C86000BF00BF4010C86000BF32
:105AC000420205212948FCF72DFE05212748FCF755
:105AD00007FE2749098C081A264908800521234812
